{
  "contractName": "Splitter",
  "abi": [
    {
      "inputs": [],
      "payable": false,
      "stateMutability": "nonpayable",
      "type": "constructor"
    },
    {
      "anonymous": false,
      "inputs": [
        {
          "indexed": true,
          "name": "sender",
          "type": "address"
        },
        {
          "indexed": true,
          "name": "bob",
          "type": "address"
        },
        {
          "indexed": true,
          "name": "carol",
          "type": "address"
        },
        {
          "indexed": false,
          "name": "amount",
          "type": "uint256"
        }
      ],
      "name": "LogSplit",
      "type": "event"
    },
    {
      "anonymous": false,
      "inputs": [
        {
          "indexed": true,
          "name": "who",
          "type": "address"
        },
        {
          "indexed": false,
          "name": "amount",
          "type": "uint256"
        }
      ],
      "name": "LogWithdrawn",
      "type": "event"
    },
    {
      "constant": false,
      "inputs": [
        {
          "name": "bob",
          "type": "address"
        },
        {
          "name": "carol",
          "type": "address"
        }
      ],
      "name": "split",
      "outputs": [],
      "payable": true,
      "stateMutability": "payable",
      "type": "function"
    },
    {
      "constant": false,
      "inputs": [],
      "name": "withdraw",
      "outputs": [],
      "payable": false,
      "stateMutability": "nonpayable",
      "type": "function"
    }
  ],
  "bytecode": "0x608060405234801561001057600080fd5b506103b0806100206000396000f3fe6080604052600436106100295760003560e01c80630f2c93291461002e5780633ccfd60b14610092575b600080fd5b6100906004803603604081101561004457600080fd5b81019080803573ffffffffffffffffffffffffffffffffffffffff169060200190929190803573ffffffffffffffffffffffffffffffffffffffff1690602001909291905050506100a9565b005b34801561009e57600080fd5b506100a7610258565b005b81600073ffffffffffffffffffffffffffffffffffffffff168173ffffffffffffffffffffffffffffffffffffffff1614156100e457600080fd5b81600073ffffffffffffffffffffffffffffffffffffffff168173ffffffffffffffffffffffffffffffffffffffff16141561011f57600080fd5b60006002348161012b57fe5b0490506000811161013b57600080fd5b806000808773ffffffffffffffffffffffffffffffffffffffff1673ffffffffffffffffffffffffffffffffffffffff168152602001908152602001600020600082825401925050819055508034036000808673ffffffffffffffffffffffffffffffffffffffff1673ffffffffffffffffffffffffffffffffffffffff168152602001908152602001600020600082825401925050819055508373ffffffffffffffffffffffffffffffffffffffff168573ffffffffffffffffffffffffffffffffffffffff163373ffffffffffffffffffffffffffffffffffffffff167f5861cc23de8cab7630160dc0ee2c1e9aa2a0f1498f73c387807c0100e6684da7346040518082815260200191505060405180910390a45050505050565b60008060003373ffffffffffffffffffffffffffffffffffffffff1673ffffffffffffffffffffffffffffffffffffffff168152602001908152602001600020549050600081116102a857600080fd5b60008060003373ffffffffffffffffffffffffffffffffffffffff1673ffffffffffffffffffffffffffffffffffffffff168152602001908152602001600020819055503373ffffffffffffffffffffffffffffffffffffffff167fe0535c2eb3e1755a11a8ee1dba6e7b72ea1487e87be0d02fca7c1038eaacbd5c826040518082815260200191505060405180910390a23373ffffffffffffffffffffffffffffffffffffffff166108fc829081150290604051600060405180830381858888f19350505050158015610380573d6000803e3d6000fd5b505056fea165627a7a723058204631d6a2b623a40a3f0d7364bb407538843843e4d01cc83d79fc82114ebeffb80029",
  "source": "pragma solidity ^0.5.0;\n\ncontract Splitter {\n    mapping (address=>uint) balances;\n    enum People {Alice, Bob, Carol}\n    // event  LogSplit(address indexed sender)\n    // Client-side will likely filter by these `indexed` fields.\n    event LogSplit(address indexed sender, address indexed bob, address indexed carol, uint amount);\n    event LogWithdrawn(address indexed who, uint amount);\n    \n    modifier validAddress(address paramAddress){\n        require(paramAddress !=  address(0));\n        _;\n    }\n    \n    constructor() public {\n        \n    }\n    \n    function split(address bob, address carol)\n        payable\n        public\n        validAddress(bob)\n        validAddress(carol) {\n            uint half = msg.value / 2;\n            require (half>0);\n            balances[bob] += half;\n            balances[carol] += msg.value - half;\n            emit LogSplit(msg.sender, bob, carol, msg.value);\n    }\n    \n    function withdraw() public {\n        uint amount = balances[msg.sender];\n        require(amount>0);\n        balances[msg.sender]=0;\n        emit LogWithdrawn(msg.sender, amount);\n        msg.sender.transfer(amount);\n    }\n    \n    \n}",
  "sourcePath": "/Users/ratimontreewat/Projects/ethereum/splitter-dapp-angular/contracts/Splitter.sol",
  "compiler": {
    "name": "solc",
    "version": "0.5.8+commit.23d335f2.Emscripten.clang"
  },
  "schemaVersion": "3.0.11",
  "updatedAt": "2019-07-10T02:23:43.944Z",
  "devdoc": {
    "methods": {}
  },
  "userdoc": {
    "methods": {}
  }
}